S01700004763634170706C69636174696F6E312E737265635B
S11300000C942A000C9447000C9447000C9447006D
S11300100C9447000C9447000C9447000C94470040
S11300200C9447000C94E0000C9447000C94470097
S11300300C9447000C9447000C9447000C94470020
S11300400C9447000C9447000C9447000C94470010
S11300500C94470011241FBECFE5D8E0DEBFCDBF0E
S113006010E0A0E6B0E0E4E8F9E002C005900D92EB
S1130070A238B107D9F720E0A2E8B0E001C01D9290
S1130080AE38B207E1F70E9449000C94C0040C9406
S11300900000FF920F931F93CF93DF93CDB7DEB78A
S11300A0C554D1090FB6F894DEBF0FBECDBF0E9470
S11300B061030E9477010E946B01CE018E960E941B
S11300C06D0388E1FE01BE96DE01119601900D924A
S11300D08A95E1F78E89811106C00E946B0180E642
S11300E090E00E943402BE016F5F7F4FCE014996BB
S11300F00E945304BE01615F7F4FCE0187960E9428
S113010053048FE690E00E943402CE0149960E9487
S1130110340282E790E00E94340286E790E00E9475
S11301203402CE0187960E94340289E790E00E944F
S1130130340261E080E00E9447028F89988D880F25
S1130140991F9C01220F331F220F331F220F331FCD
S1130150281B390B3695279536952795ABE7B4E1DF
S11301600E94440496958795F82E0EE0081B8BE7B1
S113017090E00E94340210E005C08DE790E00E94F8
S113018034021F5F1F15C8F310E005C08FE790E02D
S11301900E9434021F5F1017C8F38BE790E00E949F
S11301A0340280E090E0CB5BDF4F0FB6F894DEBF03
S11301B00FBECDBFDF91CF911F910F91FF90089596
S11301C01F920F920FB60F9211244F935F936F9368
S11301D07F938F939F93AF93BF938091820090E01E
S11301E0A0E0B0E0409184005091850060918600C9
S11301F07091870084179507A607B70729F48091A3
S1130200880082BF10928200809182008F5F809369
S11302108200BF91AF919F918F917F916F915F9178
S11302204F910F900FBE0F901F90189541E063E01F
S113023081E00E94F00287E893E10197F1F700C0A2
S1130240000040E063E081E00E94F0020895CF9353
S1130250C82F40E061E081E00E94F00240E062E0EB
S113026081E00E94F00240E063E081E00E94F0023D
S11302708C2F807F8BBB0E94160120E1C29FC0019E
S113028011248BBB0E94160183EF91E00197F1F7D3
S113029000C00000C63011F0C83111F4109289007A
S11302A0C43011F0CC3119F481E080938900CF91EE
S11302B0089582E00E9427018BE195E20197F1F70E
S11302C000C0000010928A0010928B0010928C00E3
S11302D010928D00089581E00E9427010E94590127
S11302E08BE195E20197F1F700C000000895809139
S11302F08300811140C041E061E081E00E947F02FF
S113030041E062E081E00E947F0241E061E081E03F
S11303100E947F0241E063E081E00E947F0241E0AD
S113032064E081E00E947F0241E065E081E00E9498
S11303307F0241E066E081E00E947F022FE58AEEC1
S113034090E0215080409040E1F700C0000083E33A
S11303500E94270182E30E94270188E20E9427016C
S11303608FE00E94270186E00E9427010E946B0112
S113037081E080938300089580918A0090918B009E
S1130380A0918C00B0918D00AC01BD014F71552737
S113039066277727452B462B472B31F40E946B01A8
S11303A080E80E94270108958F709927AA27BB2708
S11303B0892B8A2B8B2B19F480EC0E94270108953A
S11303C0CF93C82F0E9477010E94BC0141E061E0F5
S11303D081E00E94F00240E062E081E00E94F002CD
S11303E040E063E081E00E94F0028C2F807F8BBBB1
S11303F00E94160120E1C29FC00111248BBB0E9400
S1130400160183EF91E00197F1F700C0000080919D
S113041089008823A1F080918A0090918B00A0919B
S11304208C00B0918D000197A109B10980938A00D5
S113043090938B00A0938C00B0938D0013C0809197
S11304408A0090918B00A0918C00B0918D00019650
S1130450A11DB11D80938A0090938B00A0938C0002
S1130460B0938D00CF9108950F931F93CF938C0178
S1130470C0E003C0CF5F0E94E001F801EC0FF11D62
S113048080818111F7CFCF911F910F910895FF9231
S11304900F931F93CF93DF9300D0CDB7DEB7F82E21
S11304A0062F0E94770180E8898380EC8A8310E01C
S11304B0E1E0F0E0EC0FFD1FE00FF11F80818F0DF4
S11304C00E942701C80182959295907F9827807F8A
S11304D098278F0D911D092E000CAA0BBB0B80933E
S11304E08A0090938B00A0938C00B0938D000F90A2
S11304F00F90DF91CF911F910F91FF9008954423A6
S113050019F04130C9F10895813091F028F082301A
S1130510D9F0833029F108952AB381E090E002C034
S1130520880F991F6A95E2F7809582238ABB089504
S113053027B381E090E002C0880F991F6A95E2F723
S11305408095822387BB089524B381E090E002C0A4
S1130550880F991F6A95E2F78095822384BB0895DA
S113056021B381E090E002C0880F991F6A95E2F7F9
S11305708095822381BB0895813089F028F08230F0
S1130580C9F0833011F108952AB381E090E002C0EC
S1130590880F991F6A95E2F7822B8ABB089527B3C7
S11305A081E090E002C0880F991F6A95E2F7822BE0
S11305B087BB089524B381E090E002C0880F991F9F
S11305C06A95E2F7822B84BB089521B381E090E021
S11305D002C0880F991F6A95E2F7822B81BB0895A8
S11305E0442319F04130C9F10895813091F028F085
S11305F08230D9F0833029F108952BB381E090E063
S113060002C0880F991F6A95E2F7809582238BBBFD
S1130610089528B381E090E002C0880F991F6A957D
S1130620E2F78095822388BB089525B381E090E0AA
S113063002C0880F991F6A95E2F78095822385BBD3
S1130640089522B381E090E002C0880F991F6A9553
S1130650E2F78095822382BB0895813089F028F0E7
S11306608230C9F0833011F108952BB381E090E01A
S113067002C0880F991F6A95E2F7822B8BBB0895FD
S113068028B381E090E002C0880F991F6A95E2F7D1
S1130690822B88BB089525B381E090E002C0880FC7
S11306A0991F6A95E2F7822B85BB089522B381E0F6
S11306B090E002C0880F991F6A95E2F7822B82BBF3
S11306C008958EB580648EBD8EB5877E8EBD8EB541
S11306D0887F8EBD8FEF82BB08954F925F926F9299
S11306E07F928F929F92AF92BF92EF92FF920F935D
S11306F01F93CF93DF93CDB7DEB768970FB6F89407
S1130700DEBF0FBECDBF8C0181E08E8B1FBC1DBC34
S11307101CBC80E288BF81E48EBD08B605FEFDCF17
S113072086B597B520E228BF21E02EBD08B605FEA8
S1130730FDCF26B537B540E248BF41E44EBD08B60B
S113074005FEFDCF86B497B440E248BF1EBC8217B5
S1130750930788F52815390570F57901E81AF90A1F
S1130760881A990AA12CB12C60E07DE281E391E022
S1130770A50194010E94250429013A019701A4E6E8
S1130780B0E00E944404A50194010E940304E22EF7
S11307902AE0AE014F5F5F4FC301B2010E946504BE
S11307A0F12C4AE0BE01615F7F4FC7010E945A04E9
S11307B0F88EEF8A01C01E8A2FE38DE093E021506A
S11307C080409040E1F700C0000088E1FE013196CE
S11307D0D80101900D928A95E1F7C80168960FB689
S11307E0F894DEBF0FBECDBFDF91CF911F910F9163
S11307F0FF90EF90BF90AF909F908F907F906F90FD
S11308005F904F900895A1E21A2EAA1BBB1BFD0115
S11308100DC0AA1FBB1FEE1FFF1FA217B307E407DB
S1130820F50720F0A21BB30BE40BF50B661F771F33
S1130830881F991F1A9469F7609570958095909513
S11308409B01AC01BD01CF010895052E97FB1EF459
S113085000940E943C0457FD07D00E94030407FC47
S113086003D04EF40C943C0450954095309521955A
S11308703F4F4F4F5F4F08959095809570956195C8
S11308807F4F8F4F9F4F0895A29FB001B39FC00128
S1130890A39F700D811D1124911DB29F700D811DA8
S11308A01124911D0895FB01DC0101900D9200209B
S11308B0E1F70895BB274A3031F4992322F4BDE2CD
S11308C0909581959F4F0C949704BB272A3051F43F
S11308D0992342F4BDE290958095709561957F4F80
S11308E08F4F9F4F0C947504BB27FA01A62F6217F4
S11308F0710581059105330B30FB66F0AA27660F5D
S1130900771F881F991FAA1FA21710F0A21B6395B7
S11309103850A9F7A05DAA3308F0A95DA19336F772
S1130920B111B1931082CA010C94B004BB27FB012E
S11309305527AA27880F991FAA1FA41710F0A41BD4
S113094083955051B9F7A05DAA3308F0A95DA1932E
S1130950009779F7B111B1931192CB010C94B004C3
S1130960DC01FC01672F71917723E1F7329704C012
S11309707C916D9370836291AE17BF07C8F308959D
S1070980F894FFCF15
S11309844F5554204F462052414E4745212100469D
S11309943A00487A2000443A0025007C002D005F88
S10509A400004D
S9030000FC
